{
  "contractName": "BlackJack",
  "abi": [
    {
      "inputs": [],
      "name": "player",
      "outputs": [
        {
          "internalType": "address",
          "name": "",
          "type": "address"
        }
      ],
      "stateMutability": "view",
      "type": "function",
      "constant": true
    },
    {
      "inputs": [],
      "name": "reset",
      "outputs": [],
      "stateMutability": "nonpayable",
      "type": "function"
    },
    {
      "inputs": [],
      "name": "getCardDeckPlayer",
      "outputs": [
        {
          "internalType": "uint256[]",
          "name": "",
          "type": "uint256[]"
        }
      ],
      "stateMutability": "view",
      "type": "function",
      "constant": true
    },
    {
      "inputs": [],
      "name": "getCardDeckSC",
      "outputs": [
        {
          "internalType": "uint256[]",
          "name": "",
          "type": "uint256[]"
        }
      ],
      "stateMutability": "view",
      "type": "function",
      "constant": true
    },
    {
      "inputs": [],
      "name": "playerTurn",
      "outputs": [],
      "stateMutability": "nonpayable",
      "type": "function"
    },
    {
      "inputs": [],
      "name": "scTurn",
      "outputs": [],
      "stateMutability": "nonpayable",
      "type": "function"
    },
    {
      "inputs": [
        {
          "internalType": "uint16",
          "name": "_playerPoints",
          "type": "uint16"
        },
        {
          "internalType": "uint16",
          "name": "_scPoints",
          "type": "uint16"
        }
      ],
      "name": "winner",
      "outputs": [],
      "stateMutability": "payable",
      "type": "function",
      "payable": true
    }
  ],
  "bytecode": "0x608060405260008060006101000a81548173ffffffffffffffffffffffffffffffffffffffff021916908373ffffffffffffffffffffffffffffffffffffffff160217905550600060015534801561005657600080fd5b5061071e806100666000396000f3fe6080604052600436106100705760003560e01c8063c35e81631161004e578063c35e816314610139578063d30074d914610179578063d826f88f14610190578063fe7901d7146101a757610070565b8063238cead31461007557806348db5f89146100e1578063aa60fa9d14610122575b600080fd5b34801561008157600080fd5b5061008a610213565b6040518080602001828103825283818151815260200191508051906020019060200280838360005b838110156100cd5780820151818401526020810190506100b2565b505050509050019250505060405180910390f35b3480156100ed57600080fd5b506100f661026b565b604051808273ffffffffffffffffffffffffffffffffffffffff16815260200191505060405180910390f35b34801561012e57600080fd5b5061013761028f565b005b6101776004803603604081101561014f57600080fd5b81019080803561ffff169060200190929190803561ffff1690602001909291905050506102c1565b005b34801561018557600080fd5b5061018e610414565b005b34801561019c57600080fd5b506101a56104ea565b005b3480156101b357600080fd5b506101bc610548565b6040518080602001828103825283818151815260200191508051906020019060200280838360005b838110156101ff5780820151818401526020810190506101e4565b505050509050019250505060405180910390f35b6060600280548060200260200160405190810160405280929190818152602001828054801561026157602002820191906000526020600020905b81548152602001906001019080831161024d575b5050505050905090565b60008054906101000a900473ffffffffffffffffffffffffffffffffffffffff1681565b60036102996105a0565b9080600181540180825580915050600190039060005260206000200160009091909190915055565b61c3503411610338576040517f08c379a000000000000000000000000000000000000000000000000000000000815260040180806020018281038252601d8152602001807f44656265732074656e6572206d696e696d6f203530303031207765697300000081525060200191505060405180910390fd5b8061ffff168261ffff16118015610354575060158261ffff1611155b156103a7573373ffffffffffffffffffffffffffffffffffffffff166108fc61c3509081150290604051600060405180830381858888f193505050501580156103a1573d6000803e3d6000fd5b50610410565b3073ffffffffffffffffffffffffffffffffffffffff1661c35060405180600001905060006040518083038185875af1925050503d8060008114610407576040519150601f19603f3d011682016040523d82523d6000602084013e61040c565b606091505b5050505b5050565b60008054906101000a900473ffffffffffffffffffffffffffffffffffffffff1673ffffffffffffffffffffffffffffffffffffffff163373ffffffffffffffffffffffffffffffffffffffff16146104b8576040517f08c379a00000000000000000000000000000000000000000000000000000000081526004018080602001828103825260298152602001806106c06029913960400191505060405180910390fd5b60026104c26105a0565b9080600181540180825580915050600190039060005260206000200160009091909190915055565b600260006104f89190610681565b600360006105069190610681565b336000806101000a81548173ffffffffffffffffffffffffffffffffffffffff021916908373ffffffffffffffffffffffffffffffffffffffff160217905550565b6060600380548060200260200160405190810160405280929190818152602001828054801561059657602002820191906000526020600020905b815481526020019060010190808311610582575b5050505050905090565b6000600b424433604051602001808481526020018381526020018273ffffffffffffffffffffffffffffffffffffffff1660601b815260140193505050506040516020818303038152906040528051906020012060001c816105fe57fe5b066001819055505b6000600154141561067957600b424433604051602001808481526020018381526020018273ffffffffffffffffffffffffffffffffffffffff1660601b815260140193505050506040516020818303038152906040528051906020012060001c8161066d57fe5b06600181905550610606565b600154905090565b508054600082559060005260206000209081019061069f91906106a2565b50565b5b808211156106bb5760008160009055506001016106a3565b509056fe536f6c6f20656c206a756761646f72207075656465206c6c616d617220657374612066756e63696f6ea2646970667358221220801e3a6ea50e2ebf7af276ce93b627537f848bbc9ceebf545968c5234d205a1764736f6c63430007020033",
  "immutableReferences": {},
  "source": "// SPDX-License-Identifier: MIT\npragma solidity ^0.7.2;\n\ncontract BlackJack {\n\n  address public player = address(0);\n  uint card = 0;\n\n  uint[] cardDeckPlayer;\n  uint[] cardDeckSC;\n\n  modifier onlyPlayer() {\n    require(msg.sender == player, \"Solo el jugador puede llamar esta funcion\");\n    _;\n  }\n    \n  function reset() public {\n    delete cardDeckPlayer;\n    delete cardDeckSC;\n    player = msg.sender;\n  }\n\n  function generateCard() internal returns(uint) {\n    card = uint(keccak256(abi.encodePacked(block.timestamp, block.difficulty, msg.sender))) % 11;\n\n    while(card == 0) {\n      card = uint(keccak256(abi.encodePacked(block.timestamp, block.difficulty, msg.sender))) % 11;\n    }\n    \n    return card;\n  }\n  \n  function getCardDeckPlayer() external view returns(uint[] memory) {\n    return cardDeckPlayer;\n  }\n \n  function getCardDeckSC() external view returns(uint[] memory) {\n    return cardDeckSC;  \n  }\n\n  function playerTurn() public onlyPlayer {\n    cardDeckPlayer.push(generateCard());\n  }\n\n  function scTurn() public {\n    cardDeckSC.push(generateCard());\n  }\n\n  function winner(uint16 _playerPoints, uint16 _scPoints) public payable {\n    require(msg.value > 50000, \"Debes tener minimo 50001 weis\");\n        if(_playerPoints > _scPoints && _playerPoints <= 21) {\n            msg.sender.transfer(50000);\n        }\n        \n        else {\n            address(this).call{ value: 50000 wei }(\"\");\n        }\n  }\n}",
  "sourcePath": "/Users/federico/Desktop/bbvaHack/CryptoCasino/BlockJack/contracts/BlackJack.sol",
  "compiler": {
    "name": "solc",
    "version": "0.7.2+commit.51b20bc0.Emscripten.clang"
  },
  "schemaVersion": "3.3.1",
  "updatedAt": "2020-11-09T04:33:14.444Z",
  "networkType": "ethereum",
  "devdoc": {
    "kind": "dev",
    "methods": {},
    "version": 1
  },
  "userdoc": {
    "kind": "user",
    "methods": {},
    "version": 1
  }
}